{
  "contractName": "HelloWorld",
  "abi": [
    {
      "constant": true,
      "inputs": [],
      "name": "sayHelloWorld",
      "outputs": [
        {
          "name": "",
          "type": "string"
        }
      ],
      "payable": false,
      "stateMutability": "pure",
      "type": "function"
    },
    {
      "constant": true,
      "inputs": [
        {
          "name": "name",
          "type": "string"
        }
      ],
      "name": "saveName",
      "outputs": [
        {
          "name": "",
          "type": "string"
        }
      ],
      "payable": false,
      "stateMutability": "pure",
      "type": "function"
    }
  ],
  "bytecode": "0x6060604052341561000f57600080fd5b6102488061001e6000396000f30060606040526004361061004c576000357c0100000000000000000000000000000000000000000000000000000000900463ffffffff16806345773e4e14610051578063bc420523146100df575b600080fd5b341561005c57600080fd5b6100646101b5565b6040518080602001828103825283818151815260200191508051906020019080838360005b838110156100a4578082015181840152602081019050610089565b50505050905090810190601f1680156100d15780820380516001836020036101000a031916815260200191505b509250505060405180910390f35b34156100ea57600080fd5b61013a600480803590602001908201803590602001908080601f016020809104026020016040519081016040528093929190818152602001838380828437820191505050505050919050506101f8565b6040518080602001828103825283818151815260200191508051906020019080838360005b8381101561017a57808201518184015260208101905061015f565b50505050905090810190601f1680156101a75780820380516001836020036101000a031916815260200191505b509250505060405180910390f35b6101bd610208565b6040805190810160405280600b81526020017f68656c6c6f20776f726c64000000000000000000000000000000000000000000815250905090565b610200610208565b819050919050565b6020604051908101604052806000815250905600a165627a7a7230582028a3ec9900028e71b12b7370e9eeb430e93a71ea09063baba353f86ba8d83d100029",
  "source": "pragma solidity ^0.4.4;\n\ncontract HelloWorld {\n  function sayHelloWorld() public pure returns (string){\n    // constructor\n    return (\"hello world\");\n  }\n  function saveName(string name) public pure returns (string) {\n    return name;\n  }\n}\n",
  "sourcePath": "/Users/zhangyongsheng/Documents/block/lession2/contracts/HelloWorld.sol",
  "compiler": {
    "name": "solc",
    "version": "0.4.18+commit.9cf6e910.Emscripten.clang"
  },
  "schemaVersion": "1.0.1",
  "updatedAt": "2018-01-20T09:26:02.679Z"
}